{
  "contractName": "ERC20Holder",
  "abi": [
    {
      "inputs": [
        {
          "internalType": "contract BTGDOL",
          "name": "token_",
          "type": "address"
        },
        {
          "internalType": "uint256",
          "name": "amount_",
          "type": "uint256"
        },
        {
          "internalType": "address",
          "name": "requesterAddress_",
          "type": "address"
        },
        {
          "internalType": "address",
          "name": "providerAddress_",
          "type": "address"
        },
        {
          "internalType": "address",
          "name": "moderator_",
          "type": "address"
        }
      ],
      "stateMutability": "nonpayable",
      "type": "constructor"
    },
    {
      "inputs": [],
      "name": "checkAmount",
      "outputs": [
        {
          "internalType": "bool",
          "name": "",
          "type": "bool"
        }
      ],
      "stateMutability": "view",
      "type": "function"
    },
    {
      "inputs": [],
      "name": "setStatus",
      "outputs": [],
      "stateMutability": "nonpayable",
      "type": "function"
    },
    {
      "inputs": [],
      "name": "getToken",
      "outputs": [
        {
          "internalType": "contract IERC20",
          "name": "",
          "type": "address"
        }
      ],
      "stateMutability": "view",
      "type": "function"
    },
    {
      "inputs": [],
      "name": "getAmount",
      "outputs": [
        {
          "internalType": "uint256",
          "name": "",
          "type": "uint256"
        }
      ],
      "stateMutability": "view",
      "type": "function"
    },
    {
      "inputs": [],
      "name": "getProviderAddress",
      "outputs": [
        {
          "internalType": "address",
          "name": "",
          "type": "address"
        }
      ],
      "stateMutability": "view",
      "type": "function"
    },
    {
      "inputs": [],
      "name": "getRequesterAddress",
      "outputs": [
        {
          "internalType": "address",
          "name": "",
          "type": "address"
        }
      ],
      "stateMutability": "view",
      "type": "function"
    },
    {
      "inputs": [],
      "name": "getProviderStatus",
      "outputs": [
        {
          "internalType": "bool",
          "name": "",
          "type": "bool"
        }
      ],
      "stateMutability": "view",
      "type": "function"
    },
    {
      "inputs": [],
      "name": "getRequesterStatus",
      "outputs": [
        {
          "internalType": "bool",
          "name": "",
          "type": "bool"
        }
      ],
      "stateMutability": "view",
      "type": "function"
    },
    {
      "inputs": [],
      "name": "refound",
      "outputs": [],
      "stateMutability": "nonpayable",
      "type": "function"
    },
    {
      "inputs": [
        {
          "internalType": "uint256",
          "name": "refoundPercentage",
          "type": "uint256"
        }
      ],
      "name": "agreement",
      "outputs": [],
      "stateMutability": "nonpayable",
      "type": "function"
    },
    {
      "inputs": [],
      "name": "release",
      "outputs": [],
      "stateMutability": "nonpayable",
      "type": "function"
    }
  ],
  "bytecode": "0x60e06040526000600160146101000a81548160ff0219169083151502179055506000600160156101000a81548160ff0219169083151502179055506000600160166101000a81548160ff0219169083151502179055503480156200006257600080fd5b5060405162001b0a38038062001b0a833981810160405281019062000088919062000261565b8473ffffffffffffffffffffffffffffffffffffffff1660808173ffffffffffffffffffffffffffffffffffffffff1681525050836000819055508273ffffffffffffffffffffffffffffffffffffffff1660c08173ffffffffffffffffffffffffffffffffffffffff16815250508173ffffffffffffffffffffffffffffffffffffffff1660a08173ffffffffffffffffffffffffffffffffffffffff168152505080600160006101000a81548173ffffffffffffffffffffffffffffffffffffffff021916908373ffffffffffffffffffffffffffffffffffffffff1602179055505050505050620002e9565b600080fd5b600073ffffffffffffffffffffffffffffffffffffffff82169050919050565b6000620001a9826200017c565b9050919050565b6000620001bd826200019c565b9050919050565b620001cf81620001b0565b8114620001db57600080fd5b50565b600081519050620001ef81620001c4565b92915050565b6000819050919050565b6200020a81620001f5565b81146200021657600080fd5b50565b6000815190506200022a81620001ff565b92915050565b6200023b816200019c565b81146200024757600080fd5b50565b6000815190506200025b8162000230565b92915050565b600080600080600060a0868803121562000280576200027f62000177565b5b60006200029088828901620001de565b9550506020620002a38882890162000219565b9450506040620002b6888289016200024a565b9350506060620002c9888289016200024a565b9250506080620002dc888289016200024a565b9150509295509295909350565b60805160a05160c0516117d562000335600039600081816105c8015281816106c5015261081d015260008181610573015281816106570152610bf2015260006101be01526117d56000f3fe608060405234801561001057600080fd5b50600436106100a95760003560e01c8063cae3098311610071578063cae3098314610108578063ccc6bc4414610126578063d321fe2914610144578063d5a7420d14610162578063eda0016a1461017e578063fa174e0b1461019c576100a9565b806321df0da7146100ae57806386d1a69f146100cc578063adacb824146100d6578063b3c90e11146100f4578063c0336629146100fe575b600080fd5b6100b66101ba565b6040516100c39190610faf565b60405180910390f35b6100d46101e2565b005b6100de6103b3565b6040516100eb9190610fe5565b60405180910390f35b6100fc6103ca565b005b610106610571565b005b610110610733565b60405161011d9190611021565b60405180910390f35b61012e610841565b60405161013b9190610fe5565b60405180910390f35b61014c6108cd565b6040516101599190611055565b60405180910390f35b61017c600480360381019061017791906110a1565b6108d6565b005b610186610af1565b6040516101939190610fe5565b60405180910390f35b6101a4610b08565b6040516101b19190611021565b60405180910390f35b60007f0000000000000000000000000000000000000000000000000000000000000000905090565b60011515600160169054906101000a900460ff161515148015610218575060011515600160159054906101000a900460ff161515145b806102705750600160009054906101000a900473ffffffffffffffffffffffffffffffffffffffff1673ffffffffffffffffffffffffffffffffffffffff163373ffffffffffffffffffffffffffffffffffffffff16145b6102af576040517f08c379a00000000000000000000000000000000000000000000000000000000081526004016102a69061112b565b60405180910390fd5b60006102b96101ba565b73ffffffffffffffffffffffffffffffffffffffff166370a08231306040518263ffffffff1660e01b81526004016102f19190611021565b602060405180830381865afa15801561030e573d6000803e3d6000fd5b505050506040513d601f19601f820116820180604052508101906103329190611160565b905060008111610377576040517f08c379a000000000000000000000000000000000000000000000000000000000815260040161036e906111ff565b60405180910390fd5b6103b0610382610b08565b8261038b6101ba565b73ffffffffffffffffffffffffffffffffffffffff16610c169092919063ffffffff16565b50565b6000600160169054906101000a900460ff16905090565b60011515600160149054906101000a900460ff16151514610420576040517f08c379a00000000000000000000000000000000000000000000000000000000081526004016104179061126b565b60405180910390fd5b600160009054906101000a900473ffffffffffffffffffffffffffffffffffffffff1673ffffffffffffffffffffffffffffffffffffffff163373ffffffffffffffffffffffffffffffffffffffff16146104b0576040517f08c379a00000000000000000000000000000000000000000000000000000000081526004016104a7906112d7565b60405180910390fd5b60006104ba6101ba565b73ffffffffffffffffffffffffffffffffffffffff166370a08231306040518263ffffffff1660e01b81526004016104f29190611021565b602060405180830381865afa15801561050f573d6000803e3d6000fd5b505050506040513d601f19601f820116820180604052508101906105339190611160565b905061056e610540610733565b826105496101ba565b73ffffffffffffffffffffffffffffffffffffffff16610c169092919063ffffffff16565b50565b7f000000000000000000000000000000000000000000000000000000000000000073ffffffffffffffffffffffffffffffffffffffff163373ffffffffffffffffffffffffffffffffffffffff16148061061657507f000000000000000000000000000000000000000000000000000000000000000073ffffffffffffffffffffffffffffffffffffffff163373ffffffffffffffffffffffffffffffffffffffff16145b610655576040517f08c379a000000000000000000000000000000000000000000000000000000000815260040161064c90611369565b60405180910390fd5b7f000000000000000000000000000000000000000000000000000000000000000073ffffffffffffffffffffffffffffffffffffffff163373ffffffffffffffffffffffffffffffffffffffff16036106c35760018060166101000a81548160ff0219169083151502179055505b7f000000000000000000000000000000000000000000000000000000000000000073ffffffffffffffffffffffffffffffffffffffff163373ffffffffffffffffffffffffffffffffffffffff16036107315760018060156101000a81548160ff0219169083151502179055505b565b600060011515600160149054906101000a900460ff1615151461078b576040517f08c379a00000000000000000000000000000000000000000000000000000000081526004016107829061126b565b60405180910390fd5b600160009054906101000a900473ffffffffffffffffffffffffffffffffffffffff1673ffffffffffffffffffffffffffffffffffffffff163373ffffffffffffffffffffffffffffffffffffffff161461081b576040517f08c379a0000000000000000000000000000000000000000000000000000000008152600401610812906112d7565b60405180910390fd5b7f0000000000000000000000000000000000000000000000000000000000000000905090565b600061084b6101ba565b73ffffffffffffffffffffffffffffffffffffffff166370a08231306040518263ffffffff1660e01b81526004016108839190611021565b602060405180830381865afa1580156108a0573d6000803e3d6000fd5b505050506040513d601f19601f820116820180604052508101906108c49190611160565b60005414905090565b60008054905090565b60011515600160149054906101000a900460ff1615151461092c576040517f08c379a00000000000000000000000000000000000000000000000000000000081526004016109239061126b565b60405180910390fd5b600160009054906101000a900473ffffffffffffffffffffffffffffffffffffffff1673ffffffffffffffffffffffffffffffffffffffff163373ffffffffffffffffffffffffffffffffffffffff16146109bc576040517f08c379a00000000000000000000000000000000000000000000000000000000081526004016109b3906112d7565b60405180910390fd5b60006109c66101ba565b73ffffffffffffffffffffffffffffffffffffffff166370a08231306040518263ffffffff1660e01b81526004016109fe9190611021565b602060405180830381865afa158015610a1b573d6000803e3d6000fd5b505050506040513d601f19601f82011682018060405250810190610a3f9190611160565b9050610a91610a4c610733565b60648385610a5a91906113b8565b610a649190611429565b610a6c6101ba565b73ffffffffffffffffffffffffffffffffffffffff16610c169092919063ffffffff16565b610aed610a9c610b08565b606483856064610aac919061145a565b610ab691906113b8565b610ac09190611429565b610ac86101ba565b73ffffffffffffffffffffffffffffffffffffffff16610c169092919063ffffffff16565b5050565b6000600160159054906101000a900460ff16905090565b600060011515600160149054906101000a900460ff16151514610b60576040517f08c379a0000000000000000000000000000000000000000000000000000000008152600401610b579061126b565b60405180910390fd5b600160009054906101000a900473ffffffffffffffffffffffffffffffffffffffff1673ffffffffffffffffffffffffffffffffffffffff163373ffffffffffffffffffffffffffffffffffffffff1614610bf0576040517f08c379a0000000000000000000000000000000000000000000000000000000008152600401610be7906112d7565b60405180910390fd5b7f0000000000000000000000000000000000000000000000000000000000000000905090565b610c978363a9059cbb60e01b8484604051602401610c3592919061148e565b604051602081830303815290604052907bffffffffffffffffffffffffffffffffffffffffffffffffffffffff19166020820180517bffffffffffffffffffffffffffffffffffffffffffffffffffffffff8381831617835250505050610c9c565b505050565b6000610cfe826040518060400160405280602081526020017f5361666545524332303a206c6f772d6c6576656c2063616c6c206661696c65648152508573ffffffffffffffffffffffffffffffffffffffff16610d639092919063ffffffff16565b9050600081511115610d5e5780806020019051810190610d1e91906114e3565b610d5d576040517f08c379a0000000000000000000000000000000000000000000000000000000008152600401610d5490611582565b60405180910390fd5b5b505050565b6060610d728484600085610d7b565b90509392505050565b606082471015610dc0576040517f08c379a0000000000000000000000000000000000000000000000000000000008152600401610db790611614565b60405180910390fd5b6000808673ffffffffffffffffffffffffffffffffffffffff168587604051610de991906116a5565b60006040518083038185875af1925050503d8060008114610e26576040519150601f19603f3d011682016040523d82523d6000602084013e610e2b565b606091505b5091509150610e3c87838387610e48565b92505050949350505050565b60608315610eaa576000835103610ea257610e6285610ebd565b610ea1576040517f08c379a0000000000000000000000000000000000000000000000000000000008152600401610e9890611708565b60405180910390fd5b5b829050610eb5565b610eb48383610ee0565b5b949350505050565b6000808273ffffffffffffffffffffffffffffffffffffffff163b119050919050565b600082511115610ef35781518083602001fd5b806040517f08c379a0000000000000000000000000000000000000000000000000000000008152600401610f27919061177d565b60405180910390fd5b600073ffffffffffffffffffffffffffffffffffffffff82169050919050565b6000819050919050565b6000610f75610f70610f6b84610f30565b610f50565b610f30565b9050919050565b6000610f8782610f5a565b9050919050565b6000610f9982610f7c565b9050919050565b610fa981610f8e565b82525050565b6000602082019050610fc46000830184610fa0565b92915050565b60008115159050919050565b610fdf81610fca565b82525050565b6000602082019050610ffa6000830184610fd6565b92915050565b600061100b82610f30565b9050919050565b61101b81611000565b82525050565b60006020820190506110366000830184611012565b92915050565b6000819050919050565b61104f8161103c565b82525050565b600060208201905061106a6000830184611046565b92915050565b600080fd5b61107e8161103c565b811461108957600080fd5b50565b60008135905061109b81611075565b92915050565b6000602082840312156110b7576110b6611070565b5b60006110c58482850161108c565b91505092915050565b600082825260208201905092915050565b7f4e6f7420617070726f7665642100000000000000000000000000000000000000600082015250565b6000611115600d836110ce565b9150611120826110df565b602082019050919050565b6000602082019050818103600083015261114481611108565b9050919050565b60008151905061115a81611075565b92915050565b60006020828403121561117657611175611070565b5b60006111848482850161114b565b91505092915050565b7f4553433230486f6c6465723a206e6f20746f6b656e7320746f2072656c65617360008201527f6500000000000000000000000000000000000000000000000000000000000000602082015250565b60006111e96021836110ce565b91506111f48261118d565b604082019050919050565b60006020820190508181036000830152611218816111dc565b9050919050565b7f546869732073657276696365206973206e6f74206465736170726f7665642100600082015250565b6000611255601f836110ce565b91506112608261121f565b602082019050919050565b6000602082019050818103600083015261128481611248565b9050919050565b7f4e6f74204d6f64657261746f7221000000000000000000000000000000000000600082015250565b60006112c1600e836110ce565b91506112cc8261128b565b602082019050919050565b600060208201905081810360008301526112f0816112b4565b9050919050565b7f4f6e6c7920726571756573746572206f722070726f76696465722063616e206960008201527f6e74657261637421000000000000000000000000000000000000000000000000602082015250565b60006113536028836110ce565b915061135e826112f7565b604082019050919050565b6000602082019050818103600083015261138281611346565b9050919050565b7f4e487b7100000000000000000000000000000000000000000000000000000000600052601160045260246000fd5b60006113c38261103c565b91506113ce8361103c565b92508282026113dc8161103c565b915082820484148315176113f3576113f2611389565b5b5092915050565b7f4e487b7100000000000000000000000000000000000000000000000000000000600052601260045260246000fd5b60006114348261103c565b915061143f8361103c565b92508261144f5761144e6113fa565b5b828204905092915050565b60006114658261103c565b91506114708361103c565b925082820390508181111561148857611487611389565b5b92915050565b60006040820190506114a36000830185611012565b6114b06020830184611046565b9392505050565b6114c081610fca565b81146114cb57600080fd5b50565b6000815190506114dd816114b7565b92915050565b6000602082840312156114f9576114f8611070565b5b6000611507848285016114ce565b91505092915050565b7f5361666545524332303a204552433230206f7065726174696f6e20646964206e60008201527f6f74207375636365656400000000000000000000000000000000000000000000602082015250565b600061156c602a836110ce565b915061157782611510565b604082019050919050565b6000602082019050818103600083015261159b8161155f565b9050919050565b7f416464726573733a20696e73756666696369656e742062616c616e636520666f60008201527f722063616c6c0000000000000000000000000000000000000000000000000000602082015250565b60006115fe6026836110ce565b9150611609826115a2565b604082019050919050565b6000602082019050818103600083015261162d816115f1565b9050919050565b600081519050919050565b600081905092915050565b60005b8381101561166857808201518184015260208101905061164d565b60008484015250505050565b600061167f82611634565b611689818561163f565b935061169981856020860161164a565b80840191505092915050565b60006116b18284611674565b915081905092915050565b7f416464726573733a2063616c6c20746f206e6f6e2d636f6e7472616374000000600082015250565b60006116f2601d836110ce565b91506116fd826116bc565b602082019050919050565b60006020820190508181036000830152611721816116e5565b9050919050565b600081519050919050565b6000601f19601f8301169050919050565b600061174f82611728565b61175981856110ce565b935061176981856020860161164a565b61177281611733565b840191505092915050565b600060208201905081810360008301526117978184611744565b90509291505056fea26469706673582212200814738c6be94b030ee32dee890defe1cdae397c58942ab689a0cc7f9df40e7d64736f6c63430008130033",
  "immutableReferences": {
    "3103": [
      {
        "length": 32,
        "start": 446
      }
    ],
    "3109": [
      {
        "length": 32,
        "start": 1395
      },
      {
        "length": 32,
        "start": 1623
      },
      {
        "length": 32,
        "start": 3058
      }
    ],
    "3111": [
      {
        "length": 32,
        "start": 1480
      },
      {
        "length": 32,
        "start": 1733
      },
      {
        "length": 32,
        "start": 2077
      }
    ]
  },
  "source": "// SPDX-License-Identifier: MIT\r\n// OpenZeppelin Contracts (last updated v4.5.0) (token/ERC20/utils/TokenTimelock.sol)\r\n\r\npragma solidity ^0.8.0;\r\n\r\nimport \"@openzeppelin/contracts/token/ERC20/utils/SafeERC20.sol\";\r\nimport \"./btgdol.sol\";\r\n\r\n// colocar o tempo de vida do contrato depois do provider falar que entregou o servio\r\n// colocar o desaprove para o requester\r\n// colocar o amount\r\n\r\ncontract ERC20Holder {\r\n    using SafeERC20 for IERC20;\r\n\r\n    BTGDOL private immutable _token; // cdigo do token BTG DOL\r\n\r\n    uint256 private _amount; // atributo que vai receber a quantidade de BTG DOL que o contrato contempla\r\n\r\n    address private _moderator; // address da conta que tem privilgios no contrato\r\n\r\n    address private immutable _providerAddress; // address da conta que t prestando o servio\r\n\r\n    address private immutable _requesterAddress; // address da conta que t recebendo o servio\r\n\r\n    bool private desaprove = false; //\r\n\r\n    bool private requesterStatus = false; // status do RECEBIMENTO do servio\r\n\r\n    bool private providerStatus = false; // status da CONCLUSO do servio\r\n\r\n    // Construtor\r\n    constructor(\r\n        BTGDOL token_, // BTG DOL\r\n        uint256 amount_, // discutvel\r\n        address requesterAddress_, // discutvel\r\n        address providerAddress_, // discutvel\r\n        address moderator_ // dono da factory\r\n    ) {\r\n        _token = token_;\r\n        _amount = amount_;\r\n        _requesterAddress = requesterAddress_;\r\n        _providerAddress = providerAddress_;\r\n        _moderator = moderator_;\r\n    }\r\n\r\n    modifier isModerator() {\r\n        require(desaprove == true, \"This service is not desaproved!\");\r\n        require(msg.sender == _moderator, \"Not Moderator!\");\r\n        _;\r\n    }\r\n\r\n    function checkAmount() public view returns (bool) {\r\n        return (_amount == getToken().balanceOf(address(this)));\r\n    }\r\n\r\n    function setStatus() public {\r\n        require(\r\n            ((msg.sender == _providerAddress) ||\r\n                (msg.sender == _requesterAddress)),\r\n            \"Only requester or provider can interact!\"\r\n        );\r\n\r\n        if (msg.sender == _providerAddress) {\r\n            providerStatus = true;\r\n        }\r\n\r\n        if (msg.sender == _requesterAddress) {\r\n            requesterStatus = true;\r\n        }\r\n    }\r\n\r\n    function getToken() public view virtual returns (IERC20) {\r\n        return _token;\r\n    }\r\n\r\n    function getAmount() public view virtual returns (uint256) {\r\n        return _amount;\r\n    }\r\n\r\n    function getProviderAddress()\r\n        public\r\n        view\r\n        virtual\r\n        isModerator\r\n        returns (address)\r\n    {\r\n        return _providerAddress;\r\n    }\r\n\r\n    function getRequesterAddress()\r\n        public\r\n        view\r\n        virtual\r\n        isModerator\r\n        returns (address)\r\n    {\r\n        return _requesterAddress;\r\n    }\r\n\r\n    function getProviderStatus() public view virtual returns (bool) {\r\n        return providerStatus;\r\n    }\r\n\r\n    function getRequesterStatus() public view virtual returns (bool) {\r\n        return requesterStatus;\r\n    }\r\n\r\n    function refound() public virtual isModerator {\r\n        uint256 amount = getToken().balanceOf(address(this));\r\n\r\n        getToken().safeTransfer(getRequesterAddress(), amount);\r\n    }\r\n\r\n    function agreement(uint256 refoundPercentage) public virtual isModerator {\r\n        uint256 amount = getToken().balanceOf(address(this));\r\n\r\n        getToken().safeTransfer(\r\n            getRequesterAddress(),\r\n            (refoundPercentage * amount) / 100\r\n        );\r\n        getToken().safeTransfer(\r\n            getProviderAddress(),\r\n            ((100 - refoundPercentage) * amount) / 100\r\n        );\r\n    }\r\n\r\n    function release() public virtual {\r\n        require(\r\n            ((providerStatus == true && requesterStatus == true) ||\r\n                msg.sender == _moderator),\r\n            \"Not approved!\"\r\n        );\r\n\r\n        uint256 amount = getToken().balanceOf(address(this));\r\n        require(amount > 0, \"ESC20Holder: no tokens to release\");\r\n\r\n        getToken().safeTransfer(getProviderAddress(), amount);\r\n    }\r\n}\r\n",
  "sourcePath": "C:\\Users\\Inteli\\Documents\\source\\solidity\\truffle\\contracts\\holder.sol",
  "compiler": {
    "name": "solc",
    "version": "0.8.19+commit.7dd6d404.Emscripten.clang"
  },
  "schemaVersion": "3.4.13",
  "updatedAt": "2023-05-07T06:44:54.142Z",
  "devdoc": {
    "kind": "dev",
    "methods": {},
    "version": 1
  },
  "userdoc": {
    "kind": "user",
    "methods": {},
    "version": 1
  }
}