{
  "contractName": "holderFactory",
  "abi": [
    {
      "inputs": [],
      "stateMutability": "nonpayable",
      "type": "constructor"
    },
    {
      "inputs": [],
      "name": "owner",
      "outputs": [
        {
          "internalType": "address",
          "name": "",
          "type": "address"
        }
      ],
      "stateMutability": "view",
      "type": "function",
      "constant": true
    },
    {
      "inputs": [
        {
          "internalType": "address",
          "name": "_requesterAddress",
          "type": "address"
        }
      ],
      "name": "addRequester",
      "outputs": [],
      "stateMutability": "nonpayable",
      "type": "function"
    },
    {
      "inputs": [
        {
          "internalType": "address",
          "name": "_requesterAdress",
          "type": "address"
        },
        {
          "internalType": "uint256",
          "name": "_id",
          "type": "uint256"
        }
      ],
      "name": "getRequestersHolder",
      "outputs": [
        {
          "internalType": "address",
          "name": "",
          "type": "address"
        }
      ],
      "stateMutability": "view",
      "type": "function",
      "constant": true
    },
    {
      "inputs": [
        {
          "internalType": "address",
          "name": "_providerAddress",
          "type": "address"
        }
      ],
      "name": "addProvider",
      "outputs": [],
      "stateMutability": "nonpayable",
      "type": "function"
    },
    {
      "inputs": [
        {
          "internalType": "address",
          "name": "_providerAddress",
          "type": "address"
        },
        {
          "internalType": "uint256",
          "name": "_id",
          "type": "uint256"
        }
      ],
      "name": "getProvidersHolder",
      "outputs": [
        {
          "internalType": "address",
          "name": "",
          "type": "address"
        }
      ],
      "stateMutability": "view",
      "type": "function",
      "constant": true
    },
    {
      "inputs": [
        {
          "internalType": "uint256",
          "name": "_id",
          "type": "uint256"
        }
      ],
      "name": "getHolder",
      "outputs": [
        {
          "internalType": "address",
          "name": "",
          "type": "address"
        }
      ],
      "stateMutability": "view",
      "type": "function",
      "constant": true
    },
    {
      "inputs": [
        {
          "internalType": "uint256",
          "name": "_amount",
          "type": "uint256"
        },
        {
          "internalType": "address",
          "name": "_provider",
          "type": "address"
        }
      ],
      "name": "createHolder",
      "outputs": [
        {
          "internalType": "contract ERC20Holder",
          "name": "",
          "type": "address"
        }
      ],
      "stateMutability": "nonpayable",
      "type": "function"
    }
  ],
  "bytecode": "0x6080604052600060035534801561001557600080fd5b50336000806101000a81548173ffffffffffffffffffffffffffffffffffffffff021916908373ffffffffffffffffffffffffffffffffffffffff160217905550612629806100656000396000f3fe60806040523480156200001157600080fd5b5060043610620000885760003560e01c80638da5cb5b11620000635780638da5cb5b1462000119578063e4d609cc146200013b578063e8a96b46146200015b578063ec9cff2a14620001915762000088565b80630294e325146200008d5780631a54b5fd14620000c357806346e2577a14620000f9575b600080fd5b620000ab6004803603810190620000a59190620007fc565b620001c7565b604051620000ba9190620008ae565b60405180910390f35b620000e16004803603810190620000db9190620008cb565b62000480565b604051620000f0919062000923565b60405180910390f35b62000117600480360381019062000111919062000940565b62000509565b005b62000123620005ad565b60405162000132919062000923565b60405180910390f35b62000159600480360381019062000153919062000940565b620005d1565b005b62000179600480360381019062000173919062000972565b62000675565b60405162000188919062000923565b60405180910390f35b620001af6004803603810190620001a99190620008cb565b620006c0565b604051620001be919062000923565b60405180910390f35b60003373ffffffffffffffffffffffffffffffffffffffff1660008054906101000a900473ffffffffffffffffffffffffffffffffffffffff1673ffffffffffffffffffffffffffffffffffffffff16146200025a576040517f08c379a0000000000000000000000000000000000000000000000000000000008152600401620002519062000a05565b60405180910390fd5b600073c954baa4e37d295bb648c20f83bc105ac0bdf7e484338560008054906101000a900473ffffffffffffffffffffffffffffffffffffffff16604051620002a39062000749565b620002b395949392919062000a5d565b604051809103906000f080158015620002d0573d6000803e3d6000fd5b509050600160003373ffffffffffffffffffffffffffffffffffffffff1673ffffffffffffffffffffffffffffffffffffffff168152602001908152602001600020819080600181540180825580915050600190039060005260206000200160009091909190916101000a81548173ffffffffffffffffffffffffffffffffffffffff021916908373ffffffffffffffffffffffffffffffffffffffff160217905550600260008473ffffffffffffffffffffffffffffffffffffffff1673ffffffffffffffffffffffffffffffffffffffff168152602001908152602001600020819080600181540180825580915050600190039060005260206000200160009091909190916101000a81548173ffffffffffffffffffffffffffffffffffffffff021916908373ffffffffffffffffffffffffffffffffffffffff1602179055506004819080600181540180825580915050600190039060005260206000200160009091909190916101000a81548173ffffffffffffffffffffffffffffffffffffffff021916908373ffffffffffffffffffffffffffffffffffffffff1602179055508091505092915050565b6000600160008473ffffffffffffffffffffffffffffffffffffffff1673ffffffffffffffffffffffffffffffffffffffff1681526020019081526020016000208281548110620004d657620004d562000aba565b5b9060005260206000200160009054906101000a900473ffffffffffffffffffffffffffffffffffffffff16905092915050565b600260008273ffffffffffffffffffffffffffffffffffffffff1673ffffffffffffffffffffffffffffffffffffffff16815260200190815260200160002060009080600181540180825580915050600190039060005260206000200160009091909190916101000a81548173ffffffffffffffffffffffffffffffffffffffff021916908373ffffffffffffffffffffffffffffffffffffffff16021790555050565b60008054906101000a900473ffffffffffffffffffffffffffffffffffffffff1681565b600160008273ffffffffffffffffffffffffffffffffffffffff1673ffffffffffffffffffffffffffffffffffffffff16815260200190815260200160002060009080600181540180825580915050600190039060005260206000200160009091909190916101000a81548173ffffffffffffffffffffffffffffffffffffffff021916908373ffffffffffffffffffffffffffffffffffffffff16021790555050565b6000600482815481106200068e576200068d62000aba565b5b9060005260206000200160009054906101000a900473ffffffffffffffffffffffffffffffffffffffff169050919050565b6000600260008473ffffffffffffffffffffffffffffffffffffffff1673ffffffffffffffffffffffffffffffffffffffff168152602001908152602001600020828154811062000716576200071562000aba565b5b9060005260206000200160009054906101000a900473ffffffffffffffffffffffffffffffffffffffff16905092915050565b611b0a8062000aea83390190565b600080fd5b6000819050919050565b62000771816200075c565b81146200077d57600080fd5b50565b600081359050620007918162000766565b92915050565b600073ffffffffffffffffffffffffffffffffffffffff82169050919050565b6000620007c48262000797565b9050919050565b620007d681620007b7565b8114620007e257600080fd5b50565b600081359050620007f681620007cb565b92915050565b6000806040838503121562000816576200081562000757565b5b6000620008268582860162000780565b92505060206200083985828601620007e5565b9150509250929050565b6000819050919050565b60006200086e62000868620008628462000797565b62000843565b62000797565b9050919050565b600062000882826200084d565b9050919050565b6000620008968262000875565b9050919050565b620008a88162000889565b82525050565b6000602082019050620008c560008301846200089d565b92915050565b60008060408385031215620008e557620008e462000757565b5b6000620008f585828601620007e5565b9250506020620009088582860162000780565b9150509250929050565b6200091d81620007b7565b82525050565b60006020820190506200093a600083018462000912565b92915050565b60006020828403121562000959576200095862000757565b5b60006200096984828501620007e5565b91505092915050565b6000602082840312156200098b576200098a62000757565b5b60006200099b8482850162000780565b91505092915050565b600082825260208201905092915050565b7f4e6f74206f776e65720000000000000000000000000000000000000000000000600082015250565b6000620009ed600983620009a4565b9150620009fa82620009b5565b602082019050919050565b6000602082019050818103600083015262000a2081620009de565b9050919050565b600062000a348262000875565b9050919050565b62000a468162000a27565b82525050565b62000a57816200075c565b82525050565b600060a08201905062000a74600083018862000a3b565b62000a83602083018762000a4c565b62000a92604083018662000912565b62000aa1606083018562000912565b62000ab0608083018462000912565b9695505050505050565b7f4e487b7100000000000000000000000000000000000000000000000000000000600052603260045260246000fdfe60e06040526000600160146101000a81548160ff0219169083151502179055506000600160156101000a81548160ff0219169083151502179055506000600160166101000a81548160ff0219169083151502179055503480156200006257600080fd5b5060405162001b0a38038062001b0a833981810160405281019062000088919062000261565b8473ffffffffffffffffffffffffffffffffffffffff1660808173ffffffffffffffffffffffffffffffffffffffff1681525050836000819055508273ffffffffffffffffffffffffffffffffffffffff1660c08173ffffffffffffffffffffffffffffffffffffffff16815250508173ffffffffffffffffffffffffffffffffffffffff1660a08173ffffffffffffffffffffffffffffffffffffffff168152505080600160006101000a81548173ffffffffffffffffffffffffffffffffffffffff021916908373ffffffffffffffffffffffffffffffffffffffff1602179055505050505050620002e9565b600080fd5b600073ffffffffffffffffffffffffffffffffffffffff82169050919050565b6000620001a9826200017c565b9050919050565b6000620001bd826200019c565b9050919050565b620001cf81620001b0565b8114620001db57600080fd5b50565b600081519050620001ef81620001c4565b92915050565b6000819050919050565b6200020a81620001f5565b81146200021657600080fd5b50565b6000815190506200022a81620001ff565b92915050565b6200023b816200019c565b81146200024757600080fd5b50565b6000815190506200025b8162000230565b92915050565b600080600080600060a0868803121562000280576200027f62000177565b5b60006200029088828901620001de565b9550506020620002a38882890162000219565b9450506040620002b6888289016200024a565b9350506060620002c9888289016200024a565b9250506080620002dc888289016200024a565b9150509295509295909350565b60805160a05160c0516117d562000335600039600081816105c8015281816106c5015261081d015260008181610573015281816106570152610bf2015260006101be01526117d56000f3fe608060405234801561001057600080fd5b50600436106100a95760003560e01c8063cae3098311610071578063cae3098314610108578063ccc6bc4414610126578063d321fe2914610144578063d5a7420d14610162578063eda0016a1461017e578063fa174e0b1461019c576100a9565b806321df0da7146100ae57806386d1a69f146100cc578063adacb824146100d6578063b3c90e11146100f4578063c0336629146100fe575b600080fd5b6100b66101ba565b6040516100c39190610faf565b60405180910390f35b6100d46101e2565b005b6100de6103b3565b6040516100eb9190610fe5565b60405180910390f35b6100fc6103ca565b005b610106610571565b005b610110610733565b60405161011d9190611021565b60405180910390f35b61012e610841565b60405161013b9190610fe5565b60405180910390f35b61014c6108cd565b6040516101599190611055565b60405180910390f35b61017c600480360381019061017791906110a1565b6108d6565b005b610186610af1565b6040516101939190610fe5565b60405180910390f35b6101a4610b08565b6040516101b19190611021565b60405180910390f35b60007f0000000000000000000000000000000000000000000000000000000000000000905090565b60011515600160169054906101000a900460ff161515148015610218575060011515600160159054906101000a900460ff161515145b806102705750600160009054906101000a900473ffffffffffffffffffffffffffffffffffffffff1673ffffffffffffffffffffffffffffffffffffffff163373ffffffffffffffffffffffffffffffffffffffff16145b6102af576040517f08c379a00000000000000000000000000000000000000000000000000000000081526004016102a69061112b565b60405180910390fd5b60006102b96101ba565b73ffffffffffffffffffffffffffffffffffffffff166370a08231306040518263ffffffff1660e01b81526004016102f19190611021565b602060405180830381865afa15801561030e573d6000803e3d6000fd5b505050506040513d601f19601f820116820180604052508101906103329190611160565b905060008111610377576040517f08c379a000000000000000000000000000000000000000000000000000000000815260040161036e906111ff565b60405180910390fd5b6103b0610382610b08565b8261038b6101ba565b73ffffffffffffffffffffffffffffffffffffffff16610c169092919063ffffffff16565b50565b6000600160169054906101000a900460ff16905090565b60011515600160149054906101000a900460ff16151514610420576040517f08c379a00000000000000000000000000000000000000000000000000000000081526004016104179061126b565b60405180910390fd5b600160009054906101000a900473ffffffffffffffffffffffffffffffffffffffff1673ffffffffffffffffffffffffffffffffffffffff163373ffffffffffffffffffffffffffffffffffffffff16146104b0576040517f08c379a00000000000000000000000000000000000000000000000000000000081526004016104a7906112d7565b60405180910390fd5b60006104ba6101ba565b73ffffffffffffffffffffffffffffffffffffffff166370a08231306040518263ffffffff1660e01b81526004016104f29190611021565b602060405180830381865afa15801561050f573d6000803e3d6000fd5b505050506040513d601f19601f820116820180604052508101906105339190611160565b905061056e610540610733565b826105496101ba565b73ffffffffffffffffffffffffffffffffffffffff16610c169092919063ffffffff16565b50565b7f000000000000000000000000000000000000000000000000000000000000000073ffffffffffffffffffffffffffffffffffffffff163373ffffffffffffffffffffffffffffffffffffffff16148061061657507f000000000000000000000000000000000000000000000000000000000000000073ffffffffffffffffffffffffffffffffffffffff163373ffffffffffffffffffffffffffffffffffffffff16145b610655576040517f08c379a000000000000000000000000000000000000000000000000000000000815260040161064c90611369565b60405180910390fd5b7f000000000000000000000000000000000000000000000000000000000000000073ffffffffffffffffffffffffffffffffffffffff163373ffffffffffffffffffffffffffffffffffffffff16036106c35760018060166101000a81548160ff0219169083151502179055505b7f000000000000000000000000000000000000000000000000000000000000000073ffffffffffffffffffffffffffffffffffffffff163373ffffffffffffffffffffffffffffffffffffffff16036107315760018060156101000a81548160ff0219169083151502179055505b565b600060011515600160149054906101000a900460ff1615151461078b576040517f08c379a00000000000000000000000000000000000000000000000000000000081526004016107829061126b565b60405180910390fd5b600160009054906101000a900473ffffffffffffffffffffffffffffffffffffffff1673ffffffffffffffffffffffffffffffffffffffff163373ffffffffffffffffffffffffffffffffffffffff161461081b576040517f08c379a0000000000000000000000000000000000000000000000000000000008152600401610812906112d7565b60405180910390fd5b7f0000000000000000000000000000000000000000000000000000000000000000905090565b600061084b6101ba565b73ffffffffffffffffffffffffffffffffffffffff166370a08231306040518263ffffffff1660e01b81526004016108839190611021565b602060405180830381865afa1580156108a0573d6000803e3d6000fd5b505050506040513d601f19601f820116820180604052508101906108c49190611160565b60005414905090565b60008054905090565b60011515600160149054906101000a900460ff1615151461092c576040517f08c379a00000000000000000000000000000000000000000000000000000000081526004016109239061126b565b60405180910390fd5b600160009054906101000a900473ffffffffffffffffffffffffffffffffffffffff1673ffffffffffffffffffffffffffffffffffffffff163373ffffffffffffffffffffffffffffffffffffffff16146109bc576040517f08c379a00000000000000000000000000000000000000000000000000000000081526004016109b3906112d7565b60405180910390fd5b60006109c66101ba565b73ffffffffffffffffffffffffffffffffffffffff166370a08231306040518263ffffffff1660e01b81526004016109fe9190611021565b602060405180830381865afa158015610a1b573d6000803e3d6000fd5b505050506040513d601f19601f82011682018060405250810190610a3f9190611160565b9050610a91610a4c610733565b60648385610a5a91906113b8565b610a649190611429565b610a6c6101ba565b73ffffffffffffffffffffffffffffffffffffffff16610c169092919063ffffffff16565b610aed610a9c610b08565b606483856064610aac919061145a565b610ab691906113b8565b610ac09190611429565b610ac86101ba565b73ffffffffffffffffffffffffffffffffffffffff16610c169092919063ffffffff16565b5050565b6000600160159054906101000a900460ff16905090565b600060011515600160149054906101000a900460ff16151514610b60576040517f08c379a0000000000000000000000000000000000000000000000000000000008152600401610b579061126b565b60405180910390fd5b600160009054906101000a900473ffffffffffffffffffffffffffffffffffffffff1673ffffffffffffffffffffffffffffffffffffffff163373ffffffffffffffffffffffffffffffffffffffff1614610bf0576040517f08c379a0000000000000000000000000000000000000000000000000000000008152600401610be7906112d7565b60405180910390fd5b7f0000000000000000000000000000000000000000000000000000000000000000905090565b610c978363a9059cbb60e01b8484604051602401610c3592919061148e565b604051602081830303815290604052907bffffffffffffffffffffffffffffffffffffffffffffffffffffffff19166020820180517bffffffffffffffffffffffffffffffffffffffffffffffffffffffff8381831617835250505050610c9c565b505050565b6000610cfe826040518060400160405280602081526020017f5361666545524332303a206c6f772d6c6576656c2063616c6c206661696c65648152508573ffffffffffffffffffffffffffffffffffffffff16610d639092919063ffffffff16565b9050600081511115610d5e5780806020019051810190610d1e91906114e3565b610d5d576040517f08c379a0000000000000000000000000000000000000000000000000000000008152600401610d5490611582565b60405180910390fd5b5b505050565b6060610d728484600085610d7b565b90509392505050565b606082471015610dc0576040517f08c379a0000000000000000000000000000000000000000000000000000000008152600401610db790611614565b60405180910390fd5b6000808673ffffffffffffffffffffffffffffffffffffffff168587604051610de991906116a5565b60006040518083038185875af1925050503d8060008114610e26576040519150601f19603f3d011682016040523d82523d6000602084013e610e2b565b606091505b5091509150610e3c87838387610e48565b92505050949350505050565b60608315610eaa576000835103610ea257610e6285610ebd565b610ea1576040517f08c379a0000000000000000000000000000000000000000000000000000000008152600401610e9890611708565b60405180910390fd5b5b829050610eb5565b610eb48383610ee0565b5b949350505050565b6000808273ffffffffffffffffffffffffffffffffffffffff163b119050919050565b600082511115610ef35781518083602001fd5b806040517f08c379a0000000000000000000000000000000000000000000000000000000008152600401610f27919061177d565b60405180910390fd5b600073ffffffffffffffffffffffffffffffffffffffff82169050919050565b6000819050919050565b6000610f75610f70610f6b84610f30565b610f50565b610f30565b9050919050565b6000610f8782610f5a565b9050919050565b6000610f9982610f7c565b9050919050565b610fa981610f8e565b82525050565b6000602082019050610fc46000830184610fa0565b92915050565b60008115159050919050565b610fdf81610fca565b82525050565b6000602082019050610ffa6000830184610fd6565b92915050565b600061100b82610f30565b9050919050565b61101b81611000565b82525050565b60006020820190506110366000830184611012565b92915050565b6000819050919050565b61104f8161103c565b82525050565b600060208201905061106a6000830184611046565b92915050565b600080fd5b61107e8161103c565b811461108957600080fd5b50565b60008135905061109b81611075565b92915050565b6000602082840312156110b7576110b6611070565b5b60006110c58482850161108c565b91505092915050565b600082825260208201905092915050565b7f4e6f7420617070726f7665642100000000000000000000000000000000000000600082015250565b6000611115600d836110ce565b9150611120826110df565b602082019050919050565b6000602082019050818103600083015261114481611108565b9050919050565b60008151905061115a81611075565b92915050565b60006020828403121561117657611175611070565b5b60006111848482850161114b565b91505092915050565b7f4553433230486f6c6465723a206e6f20746f6b656e7320746f2072656c65617360008201527f6500000000000000000000000000000000000000000000000000000000000000602082015250565b60006111e96021836110ce565b91506111f48261118d565b604082019050919050565b60006020820190508181036000830152611218816111dc565b9050919050565b7f546869732073657276696365206973206e6f74206465736170726f7665642100600082015250565b6000611255601f836110ce565b91506112608261121f565b602082019050919050565b6000602082019050818103600083015261128481611248565b9050919050565b7f4e6f74204d6f64657261746f7221000000000000000000000000000000000000600082015250565b60006112c1600e836110ce565b91506112cc8261128b565b602082019050919050565b600060208201905081810360008301526112f0816112b4565b9050919050565b7f4f6e6c7920726571756573746572206f722070726f76696465722063616e206960008201527f6e74657261637421000000000000000000000000000000000000000000000000602082015250565b60006113536028836110ce565b915061135e826112f7565b604082019050919050565b6000602082019050818103600083015261138281611346565b9050919050565b7f4e487b7100000000000000000000000000000000000000000000000000000000600052601160045260246000fd5b60006113c38261103c565b91506113ce8361103c565b92508282026113dc8161103c565b915082820484148315176113f3576113f2611389565b5b5092915050565b7f4e487b7100000000000000000000000000000000000000000000000000000000600052601260045260246000fd5b60006114348261103c565b915061143f8361103c565b92508261144f5761144e6113fa565b5b828204905092915050565b60006114658261103c565b91506114708361103c565b925082820390508181111561148857611487611389565b5b92915050565b60006040820190506114a36000830185611012565b6114b06020830184611046565b9392505050565b6114c081610fca565b81146114cb57600080fd5b50565b6000815190506114dd816114b7565b92915050565b6000602082840312156114f9576114f8611070565b5b6000611507848285016114ce565b91505092915050565b7f5361666545524332303a204552433230206f7065726174696f6e20646964206e60008201527f6f74207375636365656400000000000000000000000000000000000000000000602082015250565b600061156c602a836110ce565b915061157782611510565b604082019050919050565b6000602082019050818103600083015261159b8161155f565b9050919050565b7f416464726573733a20696e73756666696369656e742062616c616e636520666f60008201527f722063616c6c0000000000000000000000000000000000000000000000000000602082015250565b60006115fe6026836110ce565b9150611609826115a2565b604082019050919050565b6000602082019050818103600083015261162d816115f1565b9050919050565b600081519050919050565b600081905092915050565b60005b8381101561166857808201518184015260208101905061164d565b60008484015250505050565b600061167f82611634565b611689818561163f565b935061169981856020860161164a565b80840191505092915050565b60006116b18284611674565b915081905092915050565b7f416464726573733a2063616c6c20746f206e6f6e2d636f6e7472616374000000600082015250565b60006116f2601d836110ce565b91506116fd826116bc565b602082019050919050565b60006020820190508181036000830152611721816116e5565b9050919050565b600081519050919050565b6000601f19601f8301169050919050565b600061174f82611728565b61175981856110ce565b935061176981856020860161164a565b61177281611733565b840191505092915050565b600060208201905081810360008301526117978184611744565b90509291505056fea26469706673582212200814738c6be94b030ee32dee890defe1cdae397c58942ab689a0cc7f9df40e7d64736f6c63430008130033a26469706673582212205fcba78b38cb720fa37d37c33328f84b9f6809d40433113cf1339c28ac750b2b64736f6c63430008130033",
  "immutableReferences": {},
  "source": "// SPDX-License-Identifier: MIT\r\n// OpenZeppelin Contracts (last updated v4.5.0) (token/ERC20/utils/TokenTimelock.sol)\r\n\r\npragma solidity ^0.8.0;\r\n\r\nimport \"./holder.sol\";\r\nimport \"./btgdol.sol\";\r\n\r\ncontract holderFactory {\r\n    address public owner; // moderador\r\n\r\n    mapping(address => address[]) requesters;\r\n    mapping(address => address[]) providers;\r\n    uint256 actualID = 0;\r\n    address[] holderList;\r\n\r\n    constructor() {\r\n        owner = msg.sender;\r\n        // owner = 0x94F58085492b8DC50AA4f078Cef8f9be22F69e12;\r\n        // addRequester(0x94F58085492b8DC50AA4f078Cef8f9be22F69e12); // minha carteira\r\n        // addProvider(0x94F58085492b8DC50AA4f078Cef8f9be22F69e12);  // carteira da hikari\r\n    }\r\n\r\n    modifier isOwner() {\r\n        require(owner == msg.sender, \"Not owner\");\r\n        _;\r\n    }\r\n\r\n    // funo que adiciona um requester no mapping\r\n    function addRequester(address _requesterAddress) public {\r\n        requesters[_requesterAddress].push(address(0));\r\n    }\r\n\r\n    function getRequestersHolder(\r\n        address _requesterAdress,\r\n        uint256 _id\r\n    ) public view returns (address) {\r\n        return requesters[_requesterAdress][_id];\r\n    }\r\n\r\n    // funo que adiciona um provider no mapping\r\n    function addProvider(address _providerAddress) public {\r\n        providers[_providerAddress].push(address(0));\r\n    }\r\n\r\n    function getProvidersHolder(\r\n        address _providerAddress,\r\n        uint256 _id\r\n    ) public view returns (address) {\r\n        return providers[_providerAddress][_id];\r\n    }\r\n\r\n    function getHolder(uint256 _id) public view returns (address) {\r\n        return holderList[_id];\r\n    }\r\n\r\n    function createHolder(\r\n        uint256 _amount,\r\n        address _provider\r\n    ) public isOwner returns (ERC20Holder) {\r\n        // require(holderList[_id] == address(0), \"Holder already exists!\");\r\n\r\n        ERC20Holder newHolder = new ERC20Holder(\r\n            BTGDOL(0xC954BaA4E37d295bb648c20F83BC105ac0BDf7E4),\r\n            _amount,\r\n            address(msg.sender),\r\n            _provider,\r\n            owner\r\n        );\r\n\r\n        requesters[address(msg.sender)].push(address(newHolder));\r\n        providers[_provider].push(address(newHolder));\r\n        holderList.push(address(newHolder));\r\n\r\n        return (newHolder);\r\n    }\r\n}\r\n",
  "sourcePath": "C:\\Users\\Inteli\\Documents\\source\\solidity\\truffle\\contracts\\holderFactory.sol",
  "compiler": {
    "name": "solc",
    "version": "0.8.19+commit.7dd6d404.Emscripten.clang"
  },
  "schemaVersion": "3.4.13",
  "updatedAt": "2023-05-07T06:45:11.617Z",
  "networkType": "ethereum",
  "devdoc": {
    "kind": "dev",
    "methods": {},
    "version": 1
  },
  "userdoc": {
    "kind": "user",
    "methods": {},
    "version": 1
  }
}